{
  "contractName": "LibraryContract",
  "abi": [
    {
      "inputs": [],
      "stateMutability": "nonpayable",
      "type": "constructor"
    },
    {
      "inputs": [],
      "name": "owner",
      "outputs": [
        {
          "internalType": "address",
          "name": "",
          "type": "address"
        }
      ],
      "stateMutability": "view",
      "type": "function",
      "constant": true
    },
    {
      "inputs": [
        {
          "internalType": "address",
          "name": "_sender",
          "type": "address"
        }
      ],
      "name": "isOwner",
      "outputs": [
        {
          "internalType": "bool",
          "name": "",
          "type": "bool"
        }
      ],
      "stateMutability": "view",
      "type": "function",
      "constant": true
    }
  ],
  "bytecode": "0x608060405234801561000f575f80fd5b50335f806101000a81548173ffffffffffffffffffffffffffffffffffffffff021916908373ffffffffffffffffffffffffffffffffffffffff1602179055506102198061005c5f395ff3fe608060405234801561000f575f80fd5b5060043610610034575f3560e01c80632f54bf6e146100385780638da5cb5b14610068575b5f80fd5b610052600480360381019061004d919061015d565b610086565b60405161005f91906101a2565b60405180910390f35b6100706100dc565b60405161007d91906101ca565b60405180910390f35b5f8173ffffffffffffffffffffffffffffffffffffffff165f8054906101000a900473ffffffffffffffffffffffffffffffffffffffff1673ffffffffffffffffffffffffffffffffffffffff16149050919050565b5f8054906101000a900473ffffffffffffffffffffffffffffffffffffffff1681565b5f80fd5b5f73ffffffffffffffffffffffffffffffffffffffff82169050919050565b5f61012c82610103565b9050919050565b61013c81610122565b8114610146575f80fd5b50565b5f8135905061015781610133565b92915050565b5f60208284031215610172576101716100ff565b5b5f61017f84828501610149565b91505092915050565b5f8115159050919050565b61019c81610188565b82525050565b5f6020820190506101b55f830184610193565b92915050565b6101c481610122565b82525050565b5f6020820190506101dd5f8301846101bb565b9291505056fea2646970667358221220af3f0a1d0fece12cce336dc08c164a122f2ecbee6d5b02a6dc6c215c1a3d18e564736f6c63430008150033",
  "immutableReferences": {},
  "source": "// SPDX-License-Identifier: MIT\r\npragma solidity ^0.8.0;\r\n\r\ncontract LibraryContract {\r\n    address public owner;\r\n\r\n    constructor() {\r\n        owner = msg.sender;\r\n    }\r\n\r\n    function isOwner(address _sender) public view returns (bool) {\r\n        return owner == _sender;\r\n    }\r\n}\r\n",
  "sourcePath": "C:\\Users\\teomi\\Desktop\\Blockchain\\contracts\\LibraryContract.sol",
  "compiler": {
    "name": "solc",
    "version": "0.8.21+commit.d9974bed.Emscripten.clang"
  },
  "schemaVersion": "3.4.16",
  "updatedAt": "2024-05-17T23:01:32.617Z",
  "networkType": "ethereum",
  "devdoc": {
    "kind": "dev",
    "methods": {},
    "version": 1
  },
  "userdoc": {
    "kind": "user",
    "methods": {},
    "version": 1
  }
}