{
  "contractName": "MusicContract",
  "abi": [
    {
      "inputs": [
        {
          "internalType": "address",
          "name": "_withdrawalContract",
          "type": "address"
        }
      ],
      "stateMutability": "nonpayable",
      "type": "constructor"
    },
    {
      "anonymous": false,
      "inputs": [
        {
          "indexed": true,
          "internalType": "address",
          "name": "sender",
          "type": "address"
        },
        {
          "indexed": true,
          "internalType": "address",
          "name": "recipient",
          "type": "address"
        },
        {
          "indexed": false,
          "internalType": "uint256",
          "name": "amount",
          "type": "uint256"
        }
      ],
      "name": "EthTransferred",
      "type": "event"
    },
    {
      "anonymous": false,
      "inputs": [
        {
          "indexed": true,
          "internalType": "address",
          "name": "deleter",
          "type": "address"
        },
        {
          "indexed": false,
          "internalType": "string",
          "name": "filename",
          "type": "string"
        }
      ],
      "name": "FileDeleted",
      "type": "event"
    },
    {
      "anonymous": false,
      "inputs": [
        {
          "indexed": true,
          "internalType": "address",
          "name": "uploader",
          "type": "address"
        },
        {
          "indexed": false,
          "internalType": "string",
          "name": "filename",
          "type": "string"
        },
        {
          "indexed": false,
          "internalType": "uint256",
          "name": "amount",
          "type": "uint256"
        }
      ],
      "name": "FileUploaded",
      "type": "event"
    },
    {
      "anonymous": false,
      "inputs": [
        {
          "indexed": true,
          "internalType": "address",
          "name": "voter",
          "type": "address"
        },
        {
          "indexed": false,
          "internalType": "string",
          "name": "filename",
          "type": "string"
        }
      ],
      "name": "VoteCasted",
      "type": "event"
    },
    {
      "inputs": [
        {
          "internalType": "string",
          "name": "",
          "type": "string"
        }
      ],
      "name": "fileBalances",
      "outputs": [
        {
          "internalType": "uint256",
          "name": "",
          "type": "uint256"
        }
      ],
      "stateMutability": "view",
      "type": "function"
    },
    {
      "inputs": [
        {
          "internalType": "string",
          "name": "",
          "type": "string"
        }
      ],
      "name": "fileOwners",
      "outputs": [
        {
          "internalType": "address",
          "name": "",
          "type": "address"
        }
      ],
      "stateMutability": "view",
      "type": "function"
    },
    {
      "inputs": [],
      "name": "lib",
      "outputs": [
        {
          "internalType": "contract LibraryContract",
          "name": "",
          "type": "address"
        }
      ],
      "stateMutability": "view",
      "type": "function"
    },
    {
      "inputs": [],
      "name": "owner",
      "outputs": [
        {
          "internalType": "address",
          "name": "",
          "type": "address"
        }
      ],
      "stateMutability": "view",
      "type": "function"
    },
    {
      "inputs": [],
      "name": "withdrawalContract",
      "outputs": [
        {
          "internalType": "address",
          "name": "",
          "type": "address"
        }
      ],
      "stateMutability": "view",
      "type": "function"
    },
    {
      "inputs": [
        {
          "internalType": "string",
          "name": "filename",
          "type": "string"
        }
      ],
      "name": "uploadFile",
      "outputs": [],
      "stateMutability": "payable",
      "type": "function"
    },
    {
      "inputs": [
        {
          "internalType": "string",
          "name": "filename",
          "type": "string"
        }
      ],
      "name": "notifyVoteCasted",
      "outputs": [],
      "stateMutability": "nonpayable",
      "type": "function"
    },
    {
      "inputs": [
        {
          "internalType": "string",
          "name": "filename",
          "type": "string"
        }
      ],
      "name": "deleteFile",
      "outputs": [],
      "stateMutability": "nonpayable",
      "type": "function"
    }
  ],
  "bytecode": "0x608060405234801562000010575f80fd5b50604051620012d6380380620012d6833981810160405281019062000036919062000197565b335f806101000a81548173ffffffffffffffffffffffffffffffffffffffff021916908373ffffffffffffffffffffffffffffffffffffffff160217905550604051620000839062000124565b604051809103905ff0801580156200009d573d5f803e3d5ffd5b5060045f6101000a81548173ffffffffffffffffffffffffffffffffffffffff021916908373ffffffffffffffffffffffffffffffffffffffff1602179055508060015f6101000a81548173ffffffffffffffffffffffffffffffffffffffff021916908373ffffffffffffffffffffffffffffffffffffffff16021790555050620001c7565b610275806200106183390190565b5f80fd5b5f73ffffffffffffffffffffffffffffffffffffffff82169050919050565b5f620001618262000136565b9050919050565b620001738162000155565b81146200017e575f80fd5b50565b5f81519050620001918162000168565b92915050565b5f60208284031215620001af57620001ae62000132565b5b5f620001be8482850162000181565b91505092915050565b610e8c80620001d55f395ff3fe60806040526004361061007a575f3560e01c8063a99100541161004d578063a991005414610138578063b830facb14610160578063d6f653801461019c578063e37ffc30146101c45761007a565b80637f3abace1461007e57806381842c2c146100ba5780638da5cb5b146100e4578063928012301461010e575b5f80fd5b348015610089575f80fd5b506100a4600480360381019061009f9190610919565b6101e0565b6040516100b19190610978565b60405180910390f35b3480156100c5575f80fd5b506100ce61020d565b6040516100db91906109d0565b60405180910390f35b3480156100ef575f80fd5b506100f8610232565b60405161010591906109d0565b60405180910390f35b348015610119575f80fd5b50610122610255565b60405161012f9190610a44565b60405180910390f35b348015610143575f80fd5b5061015e60048036038101906101599190610919565b61027a565b005b34801561016b575f80fd5b5061018660048036038101906101819190610919565b61060e565b60405161019391906109d0565b60405180910390f35b3480156101a7575f80fd5b506101c260048036038101906101bd9190610919565b610656565b005b6101de60048036038101906101d99190610919565b6106a7565b005b6003818051602081018201805184825260208301602085012081835280955050505050505f915090505481565b60015f9054906101000a900473ffffffffffffffffffffffffffffffffffffffff1681565b5f8054906101000a900473ffffffffffffffffffffffffffffffffffffffff1681565b60045f9054906101000a900473ffffffffffffffffffffffffffffffffffffffff1681565b60045f9054906101000a900473ffffffffffffffffffffffffffffffffffffffff1673ffffffffffffffffffffffffffffffffffffffff16632f54bf6e336040518263ffffffff1660e01b81526004016102d491906109d0565b602060405180830381865afa1580156102ef573d5f803e3d5ffd5b505050506040513d601f19601f820116820180604052508101906103139190610a92565b610352576040517f08c379a000000000000000000000000000000000000000000000000000000000815260040161034990610b17565b60405180910390fd5b5f73ffffffffffffffffffffffffffffffffffffffff166002826040516103799190610ba1565b90815260200160405180910390205f9054906101000a900473ffffffffffffffffffffffffffffffffffffffff1673ffffffffffffffffffffffffffffffffffffffff16036103fd576040517f08c379a00000000000000000000000000000000000000000000000000000000081526004016103f490610c01565b60405180910390fd5b5f60038260405161040e9190610ba1565b90815260200160405180910390205490505f6003836040516104309190610ba1565b9081526020016040518091039020819055505f60015f9054906101000a900473ffffffffffffffffffffffffffffffffffffffff1673ffffffffffffffffffffffffffffffffffffffff16825f8054906101000a900473ffffffffffffffffffffffffffffffffffffffff16846040516024016104ae929190610c1f565b6040516020818303038152906040527ff3fef3a3000000000000000000000000000000000000000000000000000000007bffffffffffffffffffffffffffffffffffffffffffffffffffffffff19166020820180517bffffffffffffffffffffffffffffffffffffffffffffffffffffffff83818316178352505050506040516105389190610c8a565b5f6040518083038185875af1925050503d805f8114610572576040519150601f19603f3d011682016040523d82523d5f602084013e610577565b606091505b50509050806105bb576040517f08c379a00000000000000000000000000000000000000000000000000000000081526004016105b290610cea565b60405180910390fd5b3373ffffffffffffffffffffffffffffffffffffffff167f14a51c77a00d5c4c3ccc7a4df74f169088c4d4d04859d176729645e53c7b895c846040516106019190610d40565b60405180910390a2505050565b6002818051602081018201805184825260208301602085012081835280955050505050505f915054906101000a900473ffffffffffffffffffffffffffffffffffffffff1681565b3373ffffffffffffffffffffffffffffffffffffffff167fb7821d50dfbda5ea310faebbeac5217bc1bb0cabe463e76b80e48d11e57df0988260405161069c9190610d40565b60405180910390a250565b5f34116106e9576040517f08c379a00000000000000000000000000000000000000000000000000000000081526004016106e090610daa565b60405180910390fd5b336002826040516106fa9190610ba1565b90815260200160405180910390205f6101000a81548173ffffffffffffffffffffffffffffffffffffffff021916908373ffffffffffffffffffffffffffffffffffffffff160217905550346003826040516107569190610ba1565b90815260200160405180910390205f8282546107729190610df5565b925050819055503373ffffffffffffffffffffffffffffffffffffffff167f2256cc6482ddef3e8146b3b654095ac2e0d51bc048a5685c6d950c959ee5acb582346040516107c1929190610e28565b60405180910390a250565b5f604051905090565b5f80fd5b5f80fd5b5f80fd5b5f80fd5b5f601f19601f8301169050919050565b7f4e487b71000000000000000000000000000000000000000000000000000000005f52604160045260245ffd5b61082b826107e5565b810181811067ffffffffffffffff8211171561084a576108496107f5565b5b80604052505050565b5f61085c6107cc565b90506108688282610822565b919050565b5f67ffffffffffffffff821115610887576108866107f5565b5b610890826107e5565b9050602081019050919050565b828183375f83830152505050565b5f6108bd6108b88461086d565b610853565b9050828152602081018484840111156108d9576108d86107e1565b5b6108e484828561089d565b509392505050565b5f82601f830112610900576108ff6107dd565b5b81356109108482602086016108ab565b91505092915050565b5f6020828403121561092e5761092d6107d5565b5b5f82013567ffffffffffffffff81111561094b5761094a6107d9565b5b610957848285016108ec565b91505092915050565b5f819050919050565b61097281610960565b82525050565b5f60208201905061098b5f830184610969565b92915050565b5f73ffffffffffffffffffffffffffffffffffffffff82169050919050565b5f6109ba82610991565b9050919050565b6109ca816109b0565b82525050565b5f6020820190506109e35f8301846109c1565b92915050565b5f819050919050565b5f610a0c610a07610a0284610991565b6109e9565b610991565b9050919050565b5f610a1d826109f2565b9050919050565b5f610a2e82610a13565b9050919050565b610a3e81610a24565b82525050565b5f602082019050610a575f830184610a35565b92915050565b5f8115159050919050565b610a7181610a5d565b8114610a7b575f80fd5b50565b5f81519050610a8c81610a68565b92915050565b5f60208284031215610aa757610aa66107d5565b5b5f610ab484828501610a7e565b91505092915050565b5f82825260208201905092915050565b7f4e6f7420746865206f776e6572000000000000000000000000000000000000005f82015250565b5f610b01600d83610abd565b9150610b0c82610acd565b602082019050919050565b5f6020820190508181035f830152610b2e81610af5565b9050919050565b5f81519050919050565b5f81905092915050565b5f5b83811015610b66578082015181840152602081019050610b4b565b5f8484015250505050565b5f610b7b82610b35565b610b858185610b3f565b9350610b95818560208601610b49565b80840191505092915050565b5f610bac8284610b71565b915081905092915050565b7f46696c65206e6f7420666f756e640000000000000000000000000000000000005f82015250565b5f610beb600e83610abd565b9150610bf682610bb7565b602082019050919050565b5f6020820190508181035f830152610c1881610bdf565b9050919050565b5f604082019050610c325f8301856109c1565b610c3f6020830184610969565b9392505050565b5f81519050919050565b5f81905092915050565b5f610c6482610c46565b610c6e8185610c50565b9350610c7e818560208601610b49565b80840191505092915050565b5f610c958284610c5a565b915081905092915050565b7f5769746864726177616c206661696c65640000000000000000000000000000005f82015250565b5f610cd4601183610abd565b9150610cdf82610ca0565b602082019050919050565b5f6020820190508181035f830152610d0181610cc8565b9050919050565b5f610d1282610b35565b610d1c8185610abd565b9350610d2c818560208601610b49565b610d35816107e5565b840191505092915050565b5f6020820190508181035f830152610d588184610d08565b905092915050565b7f56616c7565206d7573742062652067726561746572207468616e2030000000005f82015250565b5f610d94601c83610abd565b9150610d9f82610d60565b602082019050919050565b5f6020820190508181035f830152610dc181610d88565b9050919050565b7f4e487b71000000000000000000000000000000000000000000000000000000005f52601160045260245ffd5b5f610dff82610960565b9150610e0a83610960565b9250828201905080821115610e2257610e21610dc8565b5b92915050565b5f6040820190508181035f830152610e408185610d08565b9050610e4f6020830184610969565b939250505056fea26469706673582212205e1d360f20ee9732d544b6aa31b503916c41d40eafb8683185f3548d860cfca764736f6c63430008150033608060405234801561000f575f80fd5b50335f806101000a81548173ffffffffffffffffffffffffffffffffffffffff021916908373ffffffffffffffffffffffffffffffffffffffff1602179055506102198061005c5f395ff3fe608060405234801561000f575f80fd5b5060043610610034575f3560e01c80632f54bf6e146100385780638da5cb5b14610068575b5f80fd5b610052600480360381019061004d919061015d565b610086565b60405161005f91906101a2565b60405180910390f35b6100706100dc565b60405161007d91906101ca565b60405180910390f35b5f8173ffffffffffffffffffffffffffffffffffffffff165f8054906101000a900473ffffffffffffffffffffffffffffffffffffffff1673ffffffffffffffffffffffffffffffffffffffff16149050919050565b5f8054906101000a900473ffffffffffffffffffffffffffffffffffffffff1681565b5f80fd5b5f73ffffffffffffffffffffffffffffffffffffffff82169050919050565b5f61012c82610103565b9050919050565b61013c81610122565b8114610146575f80fd5b50565b5f8135905061015781610133565b92915050565b5f60208284031215610172576101716100ff565b5b5f61017f84828501610149565b91505092915050565b5f8115159050919050565b61019c81610188565b82525050565b5f6020820190506101b55f830184610193565b92915050565b6101c481610122565b82525050565b5f6020820190506101dd5f8301846101bb565b9291505056fea2646970667358221220af3f0a1d0fece12cce336dc08c164a122f2ecbee6d5b02a6dc6c215c1a3d18e564736f6c63430008150033",
  "immutableReferences": {},
  "source": "// SPDX-License-Identifier: MIT\r\npragma solidity ^0.8.0;\r\n\r\nimport \"./LibraryContract.sol\";\r\nimport \"./WithdrawalContract.sol\";\r\n\r\ncontract MusicContract {\r\n    address public owner;\r\n    address public withdrawalContract;\r\n    mapping(string => address) public fileOwners;\r\n    mapping(string => uint256) public fileBalances;\r\n    event FileUploaded(address indexed uploader, string filename, uint256 amount);\r\n    event FileDeleted(address indexed deleter, string filename);\r\n    event VoteCasted(address indexed voter, string filename);\r\n    event EthTransferred(address indexed sender, address indexed recipient, uint256 amount);\r\n\r\n     LibraryContract public lib;\r\n\r\n    modifier onlyOwner() {\r\n        require(lib.isOwner(msg.sender), \"Not the owner\");\r\n        _;\r\n    }\r\n\r\n    modifier fileExists(string memory filename) {\r\n        require(fileOwners[filename] != address(0), \"File not found\");\r\n        _;\r\n    }\r\n\r\n    modifier validAddress(address _address) {\r\n        require(_address != address(0), \"Invalid address\");\r\n        _;\r\n    }\r\n\r\n    constructor(address _withdrawalContract) {\r\n    owner = msg.sender;\r\n    lib = new LibraryContract();\r\n    withdrawalContract = _withdrawalContract;\r\n    }\r\n\r\n\r\n    function uploadFile(string memory filename) public payable {\r\n        require(msg.value > 0, \"Value must be greater than 0\");\r\n        fileOwners[filename] = msg.sender;\r\n        fileBalances[filename] += msg.value;\r\n        emit FileUploaded(msg.sender, filename, msg.value);\r\n    }\r\n\r\n    function notifyVoteCasted(string memory filename) external {\r\n        emit VoteCasted(msg.sender, filename);\r\n    }\r\n\r\n    function deleteFile(string memory filename) public onlyOwner {\r\n        require(fileOwners[filename] != address(0), \"File not found\");\r\n        uint256 balance = fileBalances[filename];\r\n        fileBalances[filename] = 0;\r\n        (bool success, ) = withdrawalContract.call{value: balance}(\r\n            abi.encodeWithSignature(\"withdraw(address,uint256)\", owner, balance)\r\n        );\r\n        require(success, \"Withdrawal failed\");\r\n        emit FileDeleted(msg.sender, filename);\r\n    }\r\n}",
  "sourcePath": "C:\\Users\\Ionut\\Desktop\\Blockchain\\contracts\\MusicContract.sol",
  "compiler": {
    "name": "solc",
    "version": "0.8.21+commit.d9974bed.Emscripten.clang"
  },
  "schemaVersion": "3.4.16",
  "updatedAt": "2024-05-12T03:40:25.845Z",
  "devdoc": {
    "kind": "dev",
    "methods": {},
    "version": 1
  },
  "userdoc": {
    "kind": "user",
    "methods": {},
    "version": 1
  }
}