{
  "contractName": "MusicContract",
  "abi": [
    {
      "inputs": [
        {
          "internalType": "address",
          "name": "_withdrawalContract",
          "type": "address"
        }
      ],
      "stateMutability": "nonpayable",
      "type": "constructor"
    },
    {
      "anonymous": false,
      "inputs": [
        {
          "indexed": true,
          "internalType": "address",
          "name": "sender",
          "type": "address"
        },
        {
          "indexed": true,
          "internalType": "address",
          "name": "recipient",
          "type": "address"
        },
        {
          "indexed": false,
          "internalType": "uint256",
          "name": "amount",
          "type": "uint256"
        }
      ],
      "name": "EthTransferred",
      "type": "event"
    },
    {
      "anonymous": false,
      "inputs": [
        {
          "indexed": true,
          "internalType": "address",
          "name": "deleter",
          "type": "address"
        },
        {
          "indexed": false,
          "internalType": "string",
          "name": "filename",
          "type": "string"
        }
      ],
      "name": "FileDeleted",
      "type": "event"
    },
    {
      "anonymous": false,
      "inputs": [
        {
          "indexed": true,
          "internalType": "address",
          "name": "uploader",
          "type": "address"
        },
        {
          "indexed": false,
          "internalType": "string",
          "name": "filename",
          "type": "string"
        },
        {
          "indexed": false,
          "internalType": "uint256",
          "name": "amount",
          "type": "uint256"
        }
      ],
      "name": "FileUploaded",
      "type": "event"
    },
    {
      "anonymous": false,
      "inputs": [
        {
          "indexed": true,
          "internalType": "address",
          "name": "voter",
          "type": "address"
        },
        {
          "indexed": false,
          "internalType": "string",
          "name": "filename",
          "type": "string"
        }
      ],
      "name": "VoteCasted",
      "type": "event"
    },
    {
      "inputs": [
        {
          "internalType": "string",
          "name": "",
          "type": "string"
        }
      ],
      "name": "fileBalances",
      "outputs": [
        {
          "internalType": "uint256",
          "name": "",
          "type": "uint256"
        }
      ],
      "stateMutability": "view",
      "type": "function",
      "constant": true
    },
    {
      "inputs": [
        {
          "internalType": "string",
          "name": "",
          "type": "string"
        }
      ],
      "name": "fileOwners",
      "outputs": [
        {
          "internalType": "address",
          "name": "",
          "type": "address"
        }
      ],
      "stateMutability": "view",
      "type": "function",
      "constant": true
    },
    {
      "inputs": [],
      "name": "lib",
      "outputs": [
        {
          "internalType": "contract LibraryContract",
          "name": "",
          "type": "address"
        }
      ],
      "stateMutability": "view",
      "type": "function",
      "constant": true
    },
    {
      "inputs": [],
      "name": "owner",
      "outputs": [
        {
          "internalType": "address",
          "name": "",
          "type": "address"
        }
      ],
      "stateMutability": "view",
      "type": "function",
      "constant": true
    },
    {
      "inputs": [],
      "name": "withdrawalContract",
      "outputs": [
        {
          "internalType": "address",
          "name": "",
          "type": "address"
        }
      ],
      "stateMutability": "view",
      "type": "function",
      "constant": true
    },
    {
      "inputs": [
        {
          "internalType": "string",
          "name": "filename",
          "type": "string"
        }
      ],
      "name": "notifyVoteCasted",
      "outputs": [],
      "stateMutability": "nonpayable",
      "type": "function"
    },
    {
      "inputs": [
        {
          "internalType": "string",
          "name": "filename",
          "type": "string"
        }
      ],
      "name": "uploadFile",
      "outputs": [],
      "stateMutability": "payable",
      "type": "function",
      "payable": true
    },
    {
      "inputs": [
        {
          "internalType": "string",
          "name": "filename",
          "type": "string"
        }
      ],
      "name": "deleteFile",
      "outputs": [],
      "stateMutability": "nonpayable",
      "type": "function"
    },
    {
      "inputs": [
        {
          "internalType": "string",
          "name": "filename",
          "type": "string"
        }
      ],
      "name": "downloadTransaction",
      "outputs": [],
      "stateMutability": "nonpayable",
      "type": "function"
    }
  ],
  "bytecode": "0x608060405234801562000010575f80fd5b50604051620015d6380380620015d6833981810160405281019062000036919062000197565b335f806101000a81548173ffffffffffffffffffffffffffffffffffffffff021916908373ffffffffffffffffffffffffffffffffffffffff160217905550604051620000839062000124565b604051809103905ff0801580156200009d573d5f803e3d5ffd5b5060045f6101000a81548173ffffffffffffffffffffffffffffffffffffffff021916908373ffffffffffffffffffffffffffffffffffffffff1602179055508060015f6101000a81548173ffffffffffffffffffffffffffffffffffffffff021916908373ffffffffffffffffffffffffffffffffffffffff16021790555050620001c7565b610275806200136183390190565b5f80fd5b5f73ffffffffffffffffffffffffffffffffffffffff82169050919050565b5f620001618262000136565b9050919050565b620001738162000155565b81146200017e575f80fd5b50565b5f81519050620001918162000168565b92915050565b5f60208284031215620001af57620001ae62000132565b5b5f620001be8482850162000181565b91505092915050565b61118c80620001d55f395ff3fe608060405260043610610085575f3560e01c806392f207501161005857806392f2075014610143578063a99100541461016b578063b830facb14610193578063d6f65380146101cf578063e37ffc30146101f757610085565b80637f3abace1461008957806381842c2c146100c55780638da5cb5b146100ef5780639280123014610119575b5f80fd5b348015610094575f80fd5b506100af60048036038101906100aa9190610beb565b610213565b6040516100bc9190610c4a565b60405180910390f35b3480156100d0575f80fd5b506100d9610240565b6040516100e69190610ca2565b60405180910390f35b3480156100fa575f80fd5b50610103610265565b6040516101109190610ca2565b60405180910390f35b348015610124575f80fd5b5061012d610288565b60405161013a9190610d16565b60405180910390f35b34801561014e575f80fd5b5061016960048036038101906101649190610beb565b6102ad565b005b348015610176575f80fd5b50610191600480360381019061018c9190610beb565b610534565b005b34801561019e575f80fd5b506101b960048036038101906101b49190610beb565b61087d565b6040516101c69190610ca2565b60405180910390f35b3480156101da575f80fd5b506101f560048036038101906101f09190610beb565b6108c5565b005b610211600480360381019061020c9190610beb565b610916565b005b6003818051602081018201805184825260208301602085012081835280955050505050505f915090505481565b60015f9054906101000a900473ffffffffffffffffffffffffffffffffffffffff1681565b5f8054906101000a900473ffffffffffffffffffffffffffffffffffffffff1681565b60045f9054906101000a900473ffffffffffffffffffffffffffffffffffffffff1681565b805f73ffffffffffffffffffffffffffffffffffffffff166002826040516102d59190610d9b565b90815260200160405180910390205f9054906101000a900473ffffffffffffffffffffffffffffffffffffffff1673ffffffffffffffffffffffffffffffffffffffff1603610359576040517f08c379a000000000000000000000000000000000000000000000000000000000815260040161035090610e0b565b60405180910390fd5b6003826040516103699190610d9b565b9081526020016040518091039020543373ffffffffffffffffffffffffffffffffffffffff163110156103d1576040517f08c379a00000000000000000000000000000000000000000000000000000000081526004016103c890610e99565b60405180910390fd5b6002826040516103e19190610d9b565b90815260200160405180910390205f9054906101000a900473ffffffffffffffffffffffffffffffffffffffff1673ffffffffffffffffffffffffffffffffffffffff166108fc6003846040516104389190610d9b565b90815260200160405180910390205490811502906040515f60405180830381858888f1935050505015801561046f573d5f803e3d5ffd5b506002826040516104809190610d9b565b90815260200160405180910390205f9054906101000a900473ffffffffffffffffffffffffffffffffffffffff1673ffffffffffffffffffffffffffffffffffffffff163373ffffffffffffffffffffffffffffffffffffffff167ffb55a98b33e2f35080e8e9656caf739c56946219253f8cd86917f7d33398667660038560405161050c9190610d9b565b9081526020016040518091039020546040516105289190610c4a565b60405180910390a35050565b5f8054906101000a900473ffffffffffffffffffffffffffffffffffffffff1673ffffffffffffffffffffffffffffffffffffffff163373ffffffffffffffffffffffffffffffffffffffff16146105c1576040517f08c379a00000000000000000000000000000000000000000000000000000000081526004016105b890610f01565b60405180910390fd5b5f73ffffffffffffffffffffffffffffffffffffffff166002826040516105e89190610d9b565b90815260200160405180910390205f9054906101000a900473ffffffffffffffffffffffffffffffffffffffff1673ffffffffffffffffffffffffffffffffffffffff160361066c576040517f08c379a000000000000000000000000000000000000000000000000000000000815260040161066390610e0b565b60405180910390fd5b5f60038260405161067d9190610d9b565b90815260200160405180910390205490505f60038360405161069f9190610d9b565b9081526020016040518091039020819055505f60015f9054906101000a900473ffffffffffffffffffffffffffffffffffffffff1673ffffffffffffffffffffffffffffffffffffffff16825f8054906101000a900473ffffffffffffffffffffffffffffffffffffffff168460405160240161071d929190610f1f565b6040516020818303038152906040527ff3fef3a3000000000000000000000000000000000000000000000000000000007bffffffffffffffffffffffffffffffffffffffffffffffffffffffff19166020820180517bffffffffffffffffffffffffffffffffffffffffffffffffffffffff83818316178352505050506040516107a79190610f8a565b5f6040518083038185875af1925050503d805f81146107e1576040519150601f19603f3d011682016040523d82523d5f602084013e6107e6565b606091505b505090508061082a576040517f08c379a000000000000000000000000000000000000000000000000000000000815260040161082190610fea565b60405180910390fd5b3373ffffffffffffffffffffffffffffffffffffffff167f14a51c77a00d5c4c3ccc7a4df74f169088c4d4d04859d176729645e53c7b895c846040516108709190611040565b60405180910390a2505050565b6002818051602081018201805184825260208301602085012081835280955050505050505f915054906101000a900473ffffffffffffffffffffffffffffffffffffffff1681565b3373ffffffffffffffffffffffffffffffffffffffff167fb7821d50dfbda5ea310faebbeac5217bc1bb0cabe463e76b80e48d11e57df0988260405161090b9190611040565b60405180910390a250565b5f3411610958576040517f08c379a000000000000000000000000000000000000000000000000000000000815260040161094f906110aa565b60405180910390fd5b5f8054906101000a900473ffffffffffffffffffffffffffffffffffffffff1673ffffffffffffffffffffffffffffffffffffffff166108fc3490811502906040515f60405180830381858888f193505050501580156109ba573d5f803e3d5ffd5b50336002826040516109cc9190610d9b565b90815260200160405180910390205f6101000a81548173ffffffffffffffffffffffffffffffffffffffff021916908373ffffffffffffffffffffffffffffffffffffffff16021790555034600382604051610a289190610d9b565b90815260200160405180910390205f828254610a4491906110f5565b925050819055503373ffffffffffffffffffffffffffffffffffffffff167f2256cc6482ddef3e8146b3b654095ac2e0d51bc048a5685c6d950c959ee5acb58234604051610a93929190611128565b60405180910390a250565b5f604051905090565b5f80fd5b5f80fd5b5f80fd5b5f80fd5b5f601f19601f8301169050919050565b7f4e487b71000000000000000000000000000000000000000000000000000000005f52604160045260245ffd5b610afd82610ab7565b810181811067ffffffffffffffff82111715610b1c57610b1b610ac7565b5b80604052505050565b5f610b2e610a9e565b9050610b3a8282610af4565b919050565b5f67ffffffffffffffff821115610b5957610b58610ac7565b5b610b6282610ab7565b9050602081019050919050565b828183375f83830152505050565b5f610b8f610b8a84610b3f565b610b25565b905082815260208101848484011115610bab57610baa610ab3565b5b610bb6848285610b6f565b509392505050565b5f82601f830112610bd257610bd1610aaf565b5b8135610be2848260208601610b7d565b91505092915050565b5f60208284031215610c0057610bff610aa7565b5b5f82013567ffffffffffffffff811115610c1d57610c1c610aab565b5b610c2984828501610bbe565b91505092915050565b5f819050919050565b610c4481610c32565b82525050565b5f602082019050610c5d5f830184610c3b565b92915050565b5f73ffffffffffffffffffffffffffffffffffffffff82169050919050565b5f610c8c82610c63565b9050919050565b610c9c81610c82565b82525050565b5f602082019050610cb55f830184610c93565b92915050565b5f819050919050565b5f610cde610cd9610cd484610c63565b610cbb565b610c63565b9050919050565b5f610cef82610cc4565b9050919050565b5f610d0082610ce5565b9050919050565b610d1081610cf6565b82525050565b5f602082019050610d295f830184610d07565b92915050565b5f81519050919050565b5f81905092915050565b5f5b83811015610d60578082015181840152602081019050610d45565b5f8484015250505050565b5f610d7582610d2f565b610d7f8185610d39565b9350610d8f818560208601610d43565b80840191505092915050565b5f610da68284610d6b565b915081905092915050565b5f82825260208201905092915050565b7f46696c65206e6f7420666f756e640000000000000000000000000000000000005f82015250565b5f610df5600e83610db1565b9150610e0082610dc1565b602082019050919050565b5f6020820190508181035f830152610e2281610de9565b9050919050565b7f496e73756666696369656e742062616c616e636520746f20646f776e6c6f61645f8201527f207468652066696c650000000000000000000000000000000000000000000000602082015250565b5f610e83602983610db1565b9150610e8e82610e29565b604082019050919050565b5f6020820190508181035f830152610eb081610e77565b9050919050565b7f4e6f7420746865206f776e6572000000000000000000000000000000000000005f82015250565b5f610eeb600d83610db1565b9150610ef682610eb7565b602082019050919050565b5f6020820190508181035f830152610f1881610edf565b9050919050565b5f604082019050610f325f830185610c93565b610f3f6020830184610c3b565b9392505050565b5f81519050919050565b5f81905092915050565b5f610f6482610f46565b610f6e8185610f50565b9350610f7e818560208601610d43565b80840191505092915050565b5f610f958284610f5a565b915081905092915050565b7f5769746864726177616c206661696c65640000000000000000000000000000005f82015250565b5f610fd4601183610db1565b9150610fdf82610fa0565b602082019050919050565b5f6020820190508181035f83015261100181610fc8565b9050919050565b5f61101282610d2f565b61101c8185610db1565b935061102c818560208601610d43565b61103581610ab7565b840191505092915050565b5f6020820190508181035f8301526110588184611008565b905092915050565b7f56616c7565206d7573742062652067726561746572207468616e2030000000005f82015250565b5f611094601c83610db1565b915061109f82611060565b602082019050919050565b5f6020820190508181035f8301526110c181611088565b9050919050565b7f4e487b71000000000000000000000000000000000000000000000000000000005f52601160045260245ffd5b5f6110ff82610c32565b915061110a83610c32565b9250828201905080821115611122576111216110c8565b5b92915050565b5f6040820190508181035f8301526111408185611008565b905061114f6020830184610c3b565b939250505056fea26469706673582212202b84e7fd80fc9a276fb55f37ea08106e98c07c3d60ff0d9a9a69323b290e91ed64736f6c63430008150033608060405234801561000f575f80fd5b50335f806101000a81548173ffffffffffffffffffffffffffffffffffffffff021916908373ffffffffffffffffffffffffffffffffffffffff1602179055506102198061005c5f395ff3fe608060405234801561000f575f80fd5b5060043610610034575f3560e01c80632f54bf6e146100385780638da5cb5b14610068575b5f80fd5b610052600480360381019061004d919061015d565b610086565b60405161005f91906101a2565b60405180910390f35b6100706100dc565b60405161007d91906101ca565b60405180910390f35b5f8173ffffffffffffffffffffffffffffffffffffffff165f8054906101000a900473ffffffffffffffffffffffffffffffffffffffff1673ffffffffffffffffffffffffffffffffffffffff16149050919050565b5f8054906101000a900473ffffffffffffffffffffffffffffffffffffffff1681565b5f80fd5b5f73ffffffffffffffffffffffffffffffffffffffff82169050919050565b5f61012c82610103565b9050919050565b61013c81610122565b8114610146575f80fd5b50565b5f8135905061015781610133565b92915050565b5f60208284031215610172576101716100ff565b5b5f61017f84828501610149565b91505092915050565b5f8115159050919050565b61019c81610188565b82525050565b5f6020820190506101b55f830184610193565b92915050565b6101c481610122565b82525050565b5f6020820190506101dd5f8301846101bb565b9291505056fea2646970667358221220af3f0a1d0fece12cce336dc08c164a122f2ecbee6d5b02a6dc6c215c1a3d18e564736f6c63430008150033",
  "immutableReferences": {},
  "source": "// SPDX-License-Identifier: MIT\r\npragma solidity ^0.8.0;\r\n\r\nimport \"./LibraryContract.sol\";\r\nimport \"./WithdrawalContract.sol\";\r\n\r\ncontract MusicContract {\r\n    address public owner;\r\n    address public withdrawalContract;\r\n    mapping(string => address) public fileOwners;\r\n    mapping(string => uint256) public fileBalances;\r\n    event FileUploaded(address indexed uploader, string filename, uint256 amount);\r\n    event FileDeleted(address indexed deleter, string filename);\r\n    event VoteCasted(address indexed voter, string filename);\r\n    event EthTransferred(address indexed sender, address indexed recipient, uint256 amount);\r\n\r\n    LibraryContract public lib;\r\n\r\n    modifier onlyOwner() {\r\n        require(msg.sender == owner, \"Not the owner\");\r\n        _;\r\n    }\r\n\r\n    modifier fileExists(string memory filename) {\r\n        require(fileOwners[filename] != address(0), \"File not found\");\r\n        _;\r\n    }\r\n\r\n    modifier validAddress(address _address) {\r\n        require(_address != address(0), \"Invalid address\");\r\n        _;\r\n    }\r\n\r\n    constructor(address _withdrawalContract) {\r\n        owner = msg.sender;\r\n        lib = new LibraryContract();\r\n        withdrawalContract = _withdrawalContract;\r\n    }\r\n\r\n    function notifyVoteCasted(string memory filename) external {\r\n        emit VoteCasted(msg.sender, filename);\r\n    }\r\n\r\n    function uploadFile(string memory filename) public payable {\r\n        require(msg.value > 0, \"Value must be greater than 0\");\r\n\r\n        // Transfer ETH to the contract owner\r\n        payable(owner).transfer(msg.value);\r\n\r\n        fileOwners[filename] = msg.sender;\r\n        fileBalances[filename] += msg.value;\r\n        emit FileUploaded(msg.sender, filename, msg.value);\r\n    }\r\n\r\n    function deleteFile(string memory filename) public onlyOwner {\r\n        require(fileOwners[filename] != address(0), \"File not found\");\r\n        uint256 balance = fileBalances[filename];\r\n        fileBalances[filename] = 0;\r\n        (bool success, ) = withdrawalContract.call{value: balance}(\r\n            abi.encodeWithSignature(\"withdraw(address,uint256)\", owner, balance)\r\n        );\r\n        require(success, \"Withdrawal failed\");\r\n        emit FileDeleted(msg.sender, filename);\r\n    }\r\n\r\n    function downloadTransaction(string memory filename) public fileExists(filename) {\r\n    // Ensure the sender has enough balance to download the file\r\n    require(msg.sender.balance >= fileBalances[filename], \"Insufficient balance to download the file\");\r\n\r\n    // Transfer Ether from the sender to the file owner\r\n    payable(fileOwners[filename]).transfer(fileBalances[filename]);\r\n\r\n    // Emit an event to indicate the transaction\r\n    emit EthTransferred(msg.sender, fileOwners[filename], fileBalances[filename]);\r\n}\r\n\r\n}\r\n",
  "sourcePath": "C:\\Users\\teomi\\Desktop\\Blockchain\\contracts\\MusicContract.sol",
  "compiler": {
    "name": "solc",
    "version": "0.8.21+commit.d9974bed.Emscripten.clang"
  },
  "schemaVersion": "3.4.16",
  "updatedAt": "2024-05-17T23:01:32.610Z",
  "networkType": "ethereum",
  "devdoc": {
    "kind": "dev",
    "methods": {},
    "version": 1
  },
  "userdoc": {
    "kind": "user",
    "methods": {},
    "version": 1
  }
}