{
  "contractName": "VotingContract",
  "abi": [
    {
      "inputs": [
        {
          "internalType": "address",
          "name": "_musicContractAddress",
          "type": "address"
        }
      ],
      "stateMutability": "nonpayable",
      "type": "constructor"
    },
    {
      "inputs": [
        {
          "internalType": "string",
          "name": "",
          "type": "string"
        }
      ],
      "name": "audioFiles",
      "outputs": [
        {
          "internalType": "address",
          "name": "musicContract",
          "type": "address"
        },
        {
          "internalType": "uint256",
          "name": "votes",
          "type": "uint256"
        },
        {
          "internalType": "bool",
          "name": "exists",
          "type": "bool"
        }
      ],
      "stateMutability": "view",
      "type": "function"
    },
    {
      "inputs": [],
      "name": "musicContract",
      "outputs": [
        {
          "internalType": "contract MusicContract",
          "name": "",
          "type": "address"
        }
      ],
      "stateMutability": "view",
      "type": "function"
    },
    {
      "inputs": [
        {
          "internalType": "string",
          "name": "filename",
          "type": "string"
        }
      ],
      "name": "voteForAudioFile",
      "outputs": [],
      "stateMutability": "nonpayable",
      "type": "function"
    },
    {
      "inputs": [
        {
          "internalType": "string",
          "name": "filename",
          "type": "string"
        }
      ],
      "name": "getVotesForAudioFile",
      "outputs": [
        {
          "internalType": "uint256",
          "name": "",
          "type": "uint256"
        }
      ],
      "stateMutability": "view",
      "type": "function"
    }
  ],
  "bytecode": "0x608060405234801561000f575f80fd5b50604051610a94380380610a94833981810160405281019061003191906100d5565b8060015f6101000a81548173ffffffffffffffffffffffffffffffffffffffff021916908373ffffffffffffffffffffffffffffffffffffffff16021790555050610100565b5f80fd5b5f73ffffffffffffffffffffffffffffffffffffffff82169050919050565b5f6100a48261007b565b9050919050565b6100b48161009a565b81146100be575f80fd5b50565b5f815190506100cf816100ab565b92915050565b5f602082840312156100ea576100e9610077565b5b5f6100f7848285016100c1565b91505092915050565b6109878061010d5f395ff3fe608060405234801561000f575f80fd5b506004361061004a575f3560e01c80630c9550451461004e57806314fb54ef1461006a57806372898dd11461009a5780638f7434b6146100b8575b5f80fd5b610068600480360381019061006391906105bc565b6100ea565b005b610084600480360381019061007f91906105bc565b6102b1565b604051610091919061061b565b60405180910390f35b6100a26103e2565b6040516100af91906106ae565b60405180910390f35b6100d260048036038101906100cd91906105bc565b610407565b6040516100e193929190610701565b60405180910390f35b805f73ffffffffffffffffffffffffffffffffffffffff1660015f9054906101000a900473ffffffffffffffffffffffffffffffffffffffff1673ffffffffffffffffffffffffffffffffffffffff1663b830facb836040518263ffffffff1660e01b815260040161015c91906107b0565b602060405180830381865afa158015610177573d5f803e3d5ffd5b505050506040513d601f19601f8201168201806040525081019061019b91906107fa565b73ffffffffffffffffffffffffffffffffffffffff16036101f1576040517f08c379a00000000000000000000000000000000000000000000000000000000081526004016101e89061086f565b60405180910390fd5b5f8260405161020091906108c7565b90815260200160405180910390206001015f8154809291906102219061090a565b919050555060015f9054906101000a900473ffffffffffffffffffffffffffffffffffffffff1673ffffffffffffffffffffffffffffffffffffffff1663d6f65380836040518263ffffffff1660e01b815260040161028091906107b0565b5f604051808303815f87803b158015610297575f80fd5b505af11580156102a9573d5f803e3d5ffd5b505050505050565b5f815f73ffffffffffffffffffffffffffffffffffffffff1660015f9054906101000a900473ffffffffffffffffffffffffffffffffffffffff1673ffffffffffffffffffffffffffffffffffffffff1663b830facb836040518263ffffffff1660e01b815260040161032491906107b0565b602060405180830381865afa15801561033f573d5f803e3d5ffd5b505050506040513d601f19601f8201168201806040525081019061036391906107fa565b73ffffffffffffffffffffffffffffffffffffffff16036103b9576040517f08c379a00000000000000000000000000000000000000000000000000000000081526004016103b09061086f565b60405180910390fd5b5f836040516103c891906108c7565b908152602001604051809103902060010154915050919050565b60015f9054906101000a900473ffffffffffffffffffffffffffffffffffffffff1681565b5f818051602081018201805184825260208301602085012081835280955050505050505f91509050805f015f9054906101000a900473ffffffffffffffffffffffffffffffffffffffff1690806001015490806002015f9054906101000a900460ff16905083565b5f604051905090565b5f80fd5b5f80fd5b5f80fd5b5f80fd5b5f601f19601f8301169050919050565b7f4e487b71000000000000000000000000000000000000000000000000000000005f52604160045260245ffd5b6104ce82610488565b810181811067ffffffffffffffff821117156104ed576104ec610498565b5b80604052505050565b5f6104ff61046f565b905061050b82826104c5565b919050565b5f67ffffffffffffffff82111561052a57610529610498565b5b61053382610488565b9050602081019050919050565b828183375f83830152505050565b5f61056061055b84610510565b6104f6565b90508281526020810184848401111561057c5761057b610484565b5b610587848285610540565b509392505050565b5f82601f8301126105a3576105a2610480565b5b81356105b384826020860161054e565b91505092915050565b5f602082840312156105d1576105d0610478565b5b5f82013567ffffffffffffffff8111156105ee576105ed61047c565b5b6105fa8482850161058f565b91505092915050565b5f819050919050565b61061581610603565b82525050565b5f60208201905061062e5f83018461060c565b92915050565b5f73ffffffffffffffffffffffffffffffffffffffff82169050919050565b5f819050919050565b5f61067661067161066c84610634565b610653565b610634565b9050919050565b5f6106878261065c565b9050919050565b5f6106988261067d565b9050919050565b6106a88161068e565b82525050565b5f6020820190506106c15f83018461069f565b92915050565b5f6106d182610634565b9050919050565b6106e1816106c7565b82525050565b5f8115159050919050565b6106fb816106e7565b82525050565b5f6060820190506107145f8301866106d8565b610721602083018561060c565b61072e60408301846106f2565b949350505050565b5f81519050919050565b5f82825260208201905092915050565b5f5b8381101561076d578082015181840152602081019050610752565b5f8484015250505050565b5f61078282610736565b61078c8185610740565b935061079c818560208601610750565b6107a581610488565b840191505092915050565b5f6020820190508181035f8301526107c88184610778565b905092915050565b6107d9816106c7565b81146107e3575f80fd5b50565b5f815190506107f4816107d0565b92915050565b5f6020828403121561080f5761080e610478565b5b5f61081c848285016107e6565b91505092915050565b7f46696c6520646f6573206e6f74206578697374000000000000000000000000005f82015250565b5f610859601383610740565b915061086482610825565b602082019050919050565b5f6020820190508181035f8301526108868161084d565b9050919050565b5f81905092915050565b5f6108a182610736565b6108ab818561088d565b93506108bb818560208601610750565b80840191505092915050565b5f6108d28284610897565b915081905092915050565b7f4e487b71000000000000000000000000000000000000000000000000000000005f52601160045260245ffd5b5f61091482610603565b91507fffffffffffffffffffffffffffffffffffffffffffffffffffffffffffffffff8203610946576109456108dd565b5b60018201905091905056fea264697066735822122088da0d52efe951a0effe5f90750a501cc2639752ca494a544b5d1a094a7a0b3264736f6c63430008150033",
  "immutableReferences": {},
  "source": "// SPDX-License-Identifier: MIT\r\npragma solidity ^0.8.0;\r\n\r\nimport \"./MusicContract.sol\";\r\n\r\ncontract VotingContract {\r\n    struct AudioFile {\r\n        address musicContract; // Adresa contractului MusicContract care deine fiierul audio\r\n        uint256 votes;\r\n        bool exists;\r\n    }\r\n\r\n    mapping(string => AudioFile) public audioFiles;\r\n    MusicContract public musicContract; // Referin ctre contractul MusicContract\r\n\r\n    constructor(address _musicContractAddress) {\r\n        musicContract = MusicContract(_musicContractAddress);\r\n    }\r\n\r\n    modifier fileExists(string memory filename) {\r\n        require(musicContract.fileOwners(filename) != address(0), \"File does not exist\");\r\n        _;\r\n    }\r\n\r\n    function voteForAudioFile(string memory filename) external fileExists(filename) {\r\n        audioFiles[filename].votes++;\r\n        musicContract.notifyVoteCasted(filename);\r\n    }\r\n\r\n    function getVotesForAudioFile(string memory filename) external view fileExists(filename) returns (uint256) {\r\n        return audioFiles[filename].votes;\r\n    }\r\n\r\n}",
  "sourcePath": "C:\\Users\\Ionut\\Desktop\\Blockchain\\contracts\\VotingContract.sol",
  "compiler": {
    "name": "solc",
    "version": "0.8.21+commit.d9974bed.Emscripten.clang"
  },
  "schemaVersion": "3.4.16",
  "updatedAt": "2024-05-12T05:05:40.479Z",
  "devdoc": {
    "kind": "dev",
    "methods": {},
    "version": 1
  },
  "userdoc": {
    "kind": "user",
    "methods": {},
    "version": 1
  }
}