{
  "contractName": "WithdrawalContract",
  "abi": [
    {
      "inputs": [],
      "stateMutability": "nonpayable",
      "type": "constructor"
    },
    {
      "inputs": [],
      "name": "owner",
      "outputs": [
        {
          "internalType": "address",
          "name": "",
          "type": "address"
        }
      ],
      "stateMutability": "view",
      "type": "function",
      "constant": true
    },
    {
      "stateMutability": "payable",
      "type": "receive",
      "payable": true
    },
    {
      "inputs": [
        {
          "internalType": "address payable",
          "name": "recipient",
          "type": "address"
        },
        {
          "internalType": "uint256",
          "name": "amount",
          "type": "uint256"
        }
      ],
      "name": "withdraw",
      "outputs": [],
      "stateMutability": "nonpayable",
      "type": "function"
    }
  ],
  "bytecode": "0x608060405234801561000f575f80fd5b50335f806101000a81548173ffffffffffffffffffffffffffffffffffffffff021916908373ffffffffffffffffffffffffffffffffffffffff1602179055506103e28061005c5f395ff3fe60806040526004361061002c575f3560e01c80638da5cb5b14610037578063f3fef3a31461006157610033565b3661003357005b5f80fd5b348015610042575f80fd5b5061004b610089565b6040516100589190610203565b60405180910390f35b34801561006c575f80fd5b506100876004803603810190610082919061028e565b6100ac565b005b5f8054906101000a900473ffffffffffffffffffffffffffffffffffffffff1681565b5f8054906101000a900473ffffffffffffffffffffffffffffffffffffffff1673ffffffffffffffffffffffffffffffffffffffff163373ffffffffffffffffffffffffffffffffffffffff1614610139576040517f08c379a000000000000000000000000000000000000000000000000000000000815260040161013090610326565b60405180910390fd5b8047101561017c576040517f08c379a00000000000000000000000000000000000000000000000000000000081526004016101739061038e565b60405180910390fd5b8173ffffffffffffffffffffffffffffffffffffffff166108fc8290811502906040515f60405180830381858888f193505050501580156101bf573d5f803e3d5ffd5b505050565b5f73ffffffffffffffffffffffffffffffffffffffff82169050919050565b5f6101ed826101c4565b9050919050565b6101fd816101e3565b82525050565b5f6020820190506102165f8301846101f4565b92915050565b5f80fd5b5f61022a826101c4565b9050919050565b61023a81610220565b8114610244575f80fd5b50565b5f8135905061025581610231565b92915050565b5f819050919050565b61026d8161025b565b8114610277575f80fd5b50565b5f8135905061028881610264565b92915050565b5f80604083850312156102a4576102a361021c565b5b5f6102b185828601610247565b92505060206102c28582860161027a565b9150509250929050565b5f82825260208201905092915050565b7f4e6f7420746865206f776e6572000000000000000000000000000000000000005f82015250565b5f610310600d836102cc565b915061031b826102dc565b602082019050919050565b5f6020820190508181035f83015261033d81610304565b9050919050565b7f496e73756666696369656e742062616c616e63650000000000000000000000005f82015250565b5f6103786014836102cc565b915061038382610344565b602082019050919050565b5f6020820190508181035f8301526103a58161036c565b905091905056fea2646970667358221220779e76d24cddf8ac8de0d7b14805729a072b23c9b25d20cf675d0c31fbbe5bb864736f6c63430008150033",
  "immutableReferences": {},
  "source": "// SPDX-License-Identifier: MIT\r\npragma solidity ^0.8.0;\r\n\r\ncontract WithdrawalContract {\r\n    address public owner;\r\n\r\n    constructor() {\r\n        owner = msg.sender;\r\n    }\r\n\r\n    modifier onlyOwner() {\r\n        require(msg.sender == owner, \"Not the owner\");\r\n        _;\r\n    }\r\n\r\n    function withdraw(address payable recipient, uint256 amount) external onlyOwner {\r\n        require(address(this).balance >= amount, \"Insufficient balance\");\r\n        recipient.transfer(amount);\r\n    }\r\n\r\n    receive() external payable {} // Allow contract to receive ether\r\n}\r\n",
  "sourcePath": "C:\\Users\\teomi\\Desktop\\Blockchain\\contracts\\WithdrawalContract.sol",
  "compiler": {
    "name": "solc",
    "version": "0.8.21+commit.d9974bed.Emscripten.clang"
  },
  "schemaVersion": "3.4.16",
  "updatedAt": "2024-05-17T23:01:32.197Z",
  "networkType": "ethereum",
  "devdoc": {
    "kind": "dev",
    "methods": {},
    "version": 1
  },
  "userdoc": {
    "kind": "user",
    "methods": {},
    "version": 1
  }
}